:020000040800F2
:1000000000200020112C0008572C00085D2C00084F
:1000100000000000000000000000000000000000E0
:10002000000000000000000000000000632C000839
:100030000000000000000000692C0008352D0008B9
:100040006F2C000800000000752C00087B2C0008B5
:10005000812C0008872C00088D2C0008932C0008A8
:1000600000000000992C00089F2C0008A52C000817
:10007000AB2C0008B12C0008B72C000800000000D1
:10008000BD2C0008C32C000800000000C92C00088B
:10009000092D0008CF2C0008212D0008D52C0008C0
:1000A000DB2C0008E12C0008E72C0008ED2C0008F0
:1000B000F32C000800000000000000000000000019
:1000C000002243088B4274D303098B425FD3030A97
:1000D0008B4244D3030B8B4228D3030C8B420DD3AA
:1000E000FF22090212BA030C8B4202D31212090238
:1000F00065D0030B8B4219D300E0090AC30B8B4276
:1001000001D3CB03C01A5241830B8B4201D38B0323
:10011000C01A5241430B8B4201D34B03C01A5241C8
:10012000030B8B4201D30B03C01A5241C30A8B420B
:1001300001D3CB02C01A5241830A8B4201D38B02F6
:10014000C01A5241430A8B4201D34B02C01A52419A
:10015000030A8B4201D30B02C01A5241CDD2C3090C
:100160008B4201D3CB01C01A524183098B4201D388
:100170008B01C01A524143098B4201D34B01C01A73
:10018000524103098B4201D30B01C01A5241C308EB
:100190008B4201D3CB00C01A524183088B4201D35A
:1001A0008B00C01A524143088B4201D34B00C01A46
:1001B0005241411A00D20146524110467047FFE7B2
:1001C00001B5002000F006F802BDC0460029F7D0B6
:1001D00076E770477047C04610B5064C2378002B71
:1001E00007D1054B002B02D0044800E000BF0123DB
:1001F000237010BD0C00002000000000942D0008AA
:10020000044B10B5002B03D00349044800E000BFA5
:1002100010BDC0460000000010000020942D000812
:10022000F0B5D6464F464646C0B58AB014220021E6
:1002300005A802F0A7FD4C4B59698020000301433B
:1002400059615A6902400092009A59698020C0039E
:10025000014359615A6902400192019A596980200B
:100260008002014359615A6902400292029A596917
:100270008020C002014359615A6902400392039AE7
:100280005A69802149030A435A615B690B40049310
:10029000049B364B984600227C21180001F09CFDFF
:1002A000334F0022E021380001F096FD314B9A4691
:1002B000314E00221900300001F08EFD2F4B99467F
:1002C00000220421180001F087FDFC239B01059307
:1002D00000240694079405A9404601F0B7FC7C234E
:1002E0000593012506950794089405A9404601F059
:1002F000ADFC102305930694079405A9380001F07E
:10030000A5FCE023059306950794089405A93800F9
:1003100001F09CFC5346059306950794089405A9A3
:10032000300001F093FC80231B0205930694079490
:10033000902005A9C00501F089FC042305930695CA
:100340000794089405A9484601F080FC082305930A
:100350000694079405A9300001F078FC0AB0E0BCCF
:10036000BA46B146A846F0BD001002400008004859
:100370000014004814F2000000040048000C00487B
:1003800072B6FEE700B585B00C22002101A802F08C
:10039000F9FC2648264B0360002343608360C3605A
:1003A0000122026104214161037643768376C3769C
:1003B000C221FF31C16103629E39FF394354826219
:1003C00000F01EFE002827D10023019380235B014B
:1003D000029380235B05039301A9144800F0D2FE29
:1003E00000281BD10123019301A9104800F0CAFE87
:1003F000002815D10823019301A90C4800F0C2FE82
:1004000000280FD10923019301A9084800F0BAFE82
:10041000002809D105B000BDFFF7B2FFFFF7B0FF1C
:10042000FFF7AEFFFFF7ACFFFFF7AAFF28000020A1
:100430000024014010B51248124B0360124B436078
:10044000002383600122C260036143618361C36151
:10045000036201F03FFB00280CD10021084801F0A5
:100460009FFB002808D10021054801F0C5FB0028AA
:1004700004D110BDFFF784FFFFF782FFFFF780FF75
:1004800068000020005400400E09002010B51248FA
:10049000124B0360124B4360002383600122C26051
:1004A000036143618361C361036201F013FB0028B0
:1004B0000CD10021084801F073FB002808D100216D
:1004C000054801F099FB002804D110BDFFF758FF43
:1004D000FFF756FFFFF754FFB4000020005800401C
:1004E0005D3E302010B51048104B036082235B0046
:1004F000436000238360C0229200C26003614361B5
:10050000013AFF3A8261F93AFF3AC26103624362FB
:1005100083620721C1620363426301F0BBFC0028D0
:1005200000D110BDFFF72CFF00010020003001407A
:1005300000B597B01022002112A802F023FC082277
:10054000002110A802F01EFC1C22002109A802F0C4
:1005500019FC2022002101A802F014FC3848394B74
:100560000360002343608360374AC26003614361D4
:10057000836101F033FF002850D180235B01129387
:1005800012A92F4802F04AF8002849D12C4801F05E
:1005900051FF002846D100231093119310A9284839
:1005A00002F0C0F800283FD16023099300230A938A
:1005B0000B930C930D930E930F93002209A92048DF
:1005C00001F0A8FF002831D1042209A91C4801F03C
:1005D000A1FF00282CD1082209A9194801F09AFF8F
:1005E000002827D10C2209A9154801F093FF002803
:1005F00022D1002301930293039304930593802255
:1006000092010692089301A90D4802F0BDF8002856
:1006100014D10B4800F050FB17B000BDFFF7B0FE3F
:10062000FFF7AEFEFFF7ACFEFFF7AAFEFFF7A8FE4E
:10063000FFF7A6FEFFF7A4FEFFF7A2FEFFF7A0FE5E
:1006400064010020002C0140FFFF000000B58FB0C6
:10065000102200210AA802F095FB0822002108A818
:1006600002F090FB1C22002101A802F08BFB204825
:10067000204B03600023436083601F4AC260036114
:10068000836101F0ABFE002828D180235B010A932F
:100690000AA9174801F0C2FF002821D1144801F02F
:1006A000C9FE00281ED100230893099308A9104809
:1006B00002F038F8002817D1602301930023029339
:1006C00003930593042201A9094801F023FF0028A0
:1006D0000CD1074800F0F0FA0FB000BDFFF750FE54
:1006E000FFF74EFEFFF74CFEFFF74AFEFFF748FE0E
:1006F000CC02002000040040FFFF000000B589B0DC
:100700001C22002101A802F03DFB1548154B036097
:10071000002343608360144AC2600361836101F077
:100720005DFE002816D10E4801F084FE002813D18A
:10073000602301930023029303930593002201A9F0
:10074000074801F0E7FE002808D1054800F0B4FA98
:1007500009B000BDFFF714FEFFF712FEFFF710FE11
:10076000AC01002000200040FFFF000000B591B068
:100770001C22002109A802F005FB2022002101A86B
:1007800002F000FB2048214B03600023436083609C
:100790001F4AC26003614361836101F01FFE0028AC
:1007A00029D1194801F046FE002826D1602309937B
:1007B00000230A930B930C930D930E930F93002237
:1007C00009A9114801F0A6FE002818D100230193C1
:1007D0000293039304930593802292010692089357
:1007E00001A9094801F0D0FF00280AD1064800F00D
:1007F00063FA11B000BDFFF7C3FDFFF7C1FDFFF7BE
:10080000BFFDFFF7BDFDC0463C0200200044014093
:10081000FFFF000010B50B480B4B036096231B0233
:10082000436000238360C36003610C2242618361E3
:10083000C3610362436202F0B3F9002800D110BD26
:10084000FFF79EFD140300200044004000B587B070
:100850001022002102A802F095FA08220021684621
:1008600002F090FA1448154B03602F2343600023D5
:100870008360134AC26003614361836101F0AEFD8E
:10088000002813D180235B01029302A90A4801F0DA
:10089000C5FE00280CD10023009301936946064849
:1008A00001F040FF002805D107B000BDFFF768FD4B
:1008B000FFF766FDFFF764FDF401002000400140F2
:1008C0001027000010B50948094B03602F2343602F
:1008D000002383606422C26003614361836101F08D
:1008E0007DFD002800D110BDFFF74AFD84020020E5
:1008F0000048014010B594B03022002108A802F051
:1009000041FA10241022002104A802F03BFA102220
:100910000021684602F036FA12230893113B0B932C
:100920000D930C940E9401331093A0239B03129308
:1009300008A800F0C1FC002817D107230493053B49
:100940000593002306930793012104A800F03AFFC2
:1009500000280CD12023009300230393684600F065
:10096000E1FF002805D114B010BDFFF709FDFFF726
:1009700007FDFFF705FD000010B501F089F8FFF74E
:10098000B9FFFFF74DFCFFF7FDFCFFF753FDFFF745
:100990007DFDFFF7A7FDFFF7CBFDFFF757FEFFF744
:1009A000ADFEFFF7E3FEFFF735FFFFF74FFFFFF761
:1009B00089FF044801F0E4FB034801F0E1FB00F08B
:1009C000A3FAFCE7F40100208402002082B00A4B65
:1009D000996901221143996199690A400092009A2C
:1009E000DA69802149050A43DA61DB690B4001932A
:1009F000019B02B07047C0460010024010B588B09D
:100A000004001422002103A802F0BCF92268194B4B
:100A10009A4201D008B010BD174B99698020800020
:100A2000014399619A6902400092009A59698020B5
:100A30008002014359615A6902400192019A5A6940
:100A40008021C9020A435A615B690B400293029BF1
:100A5000032403940494902003A9C00501F0F6F840
:100A6000039404940023059303A9044801F0EEF8CD
:100A7000D0E7C046002401400010024000040048B6
:100A800010B58AB004001422002105A802F07AF9FA
:100A90002368244A934204D0234A934221D00AB0C7
:100AA00010BD224C62698021C9020A4362616369F8
:100AB0000B400193019BC0230593AE3B06930F3B74
:100AC0000893023B099305A9194801F0BFF8E269B0
:100AD000802189030A43E261E3690B400293029B90
:100AE000DDE7124C62698021C9020A4362616369D1
:100AF0000B400393039BC0231B0105931223069312
:100B00000F3B0893023B099305A9094801F09EF8A1
:100B1000E2698021C9030A43E261E3690B4004935F
:100B2000049BBCE700540040005800400010024005
:100B30000004004810B588B004001422002103A866
:100B400002F020F92268124B9A4201D008B010BD81
:100B5000104B996980204001014399619A690240D4
:100B60000192019A5A69802189020A435A615B699C
:100B70000B400293029BE0230393DE3B049301337B
:100B80000693902003A9C00501F060F8DEE7C04697
:100B9000003001400010024010B58CB00400142257
:100BA000002107A802F0EEF823683C4A934221D0C6
:100BB0003B4A93423DD03B4A934245D03A4A934206
:100BC0004DD03A4A93425DD0394A93423AD1394A9C
:100BD00091698020C00201439161936903400693AB
:100BE000069B00220021162001F0FCF8162001F0DF
:100BF00029F927E02F4B9969802000010143996171
:100C00009A6902400092009A5A69802189020A4337
:100C10005A615B690B400193019B80235B01079341
:100C2000022308930B93902007A9C00501F00EF84A
:100C300008E0204AD16902231943D161D2691340E7
:100C40000293029B0CB010BD1A4AD169802040006B
:100C50000143D161D36903400393039BF2E7154A33
:100C6000916980204002014391619369034004939C
:100C7000049B00220121142001F0B4F8142001F09B
:100C8000E1F8DFE70B4A916980208002014391611E
:100C9000936903400593059BD4E7C046002C0140AF
:100CA000000400400020004000400140004401409A
:100CB000004801400010024010B58AB00400142220
:100CC000002105A802F05EF82368314A93420AD059
:100CD000304A93421DD0304A93422DD02F4A93423E
:100CE00040D00AB010BD2E4A5169802080020143D5
:100CF0005161536903400193019BF0231B0105934C
:100D0000022306930993902005A9C00500F09EFFD9
:100D1000E7E7234A51698020000301435161536989
:100D200003400293029B802305937E3B069305A913
:100D30001C4800F08BFFD4E7194A516980208002DB
:100D400001435161536903400393039B10230593AF
:100D50000E3B069302330993902005A9C00500F0CD
:100D600075FFBEE70E4A51698020C0020143516100
:100D7000536903400493049B80235B000593FE3B6F
:100D80000693099305A9084800F060FFA9E7C0464B
:100D9000002C0140000400400020004000440140BD
:100DA00000100240000800480004004810B588B058
:100DB00004001422002103A801F0E4FF2268124B72
:100DC0009A4201D008B010BD104BD969802292021E
:100DD0001143D961D96911400191019959691143B0
:100DE00059615B691A400292029B0C2303930A3BF0
:100DF000049301330693023B0793902003A9C00597
:100E000000F024FFDEE7C04600440040001002402E
:100E10007047704770470000024A1368013313603F
:100E20007047C04698030020014B18687047C046C1
:100E30009803002010B50400FFF7F6FF022C07D03E
:100E4000032C08D0012C00D010BD044B1861FBE727
:100E5000024B9861F8E7014B1862F5E79803002010
:100E600010B50400FFF7E0FF022C0FD0032C10D0C8
:100E7000012C08D00023C31A022C11D0032C13D04C
:100E8000012C09D010BD0A4B1B69F4E7084B9B6984
:100E9000F1E7074B1B6AEEE7054A53635061F1E740
:100EA000034A9363D061EDE7014AD3635062E9E7F7
:100EB0009803002010B50400FFF7B6FF022C0FD0F6
:100EC000032C10D0012C08D00023C31A022C11D0FF
:100ED000032C13D0012C09D010BD0A4B9B6AF4E7F8
:100EE000084BDB6AF1E7074B1B6BEEE7054A13641F
:100EF0009062F1E7034A5364D062EDE7014A9364DC
:100F00001063E9E79803002010B50F4A5623D35C1D
:100F1000012B09D00420FFF78DFF0420FFF7A0FF6D
:100F20000420FFF7C7FF10BD1300084A1A665622B7
:100F3000002199540320FFF77DFF0320FFF790FF66
:100F40000320FFF7B7FFEEE798030020150E000817
:100F500010B5114B5A68501C586054220121995405
:100F60006331FFF733F9002906D10B4BDA68013200
:100F7000DA60562201319954074B084A9A65542287
:100F8000002199540120FFF755FF0120FFF768FF6A
:100F90000120FFF78FFF10BD98030020110E0008FD
:100FA00010B50A4B9A6801329A6055220121995472
:100FB0000749D965002199540220FFF73BFF022021
:100FC000FFF74EFF0220FFF775FF10BD98030020CA
:100FD000130E000810B50400074B02689A4204D0B3
:100FE0002268064B9A4203D010BDFFF7D9FFF7E7FE
:100FF000FFF712FFF8E7C0460040014000480140FB
:1010000070B5041E00D1B4E0836B002B00D180E0EA
:10101000A36BDB0600D5A6E02268916804200500DA
:101020000D40084200D09EE0A16B534B194006339F
:10103000FF331943A163916801330B40012B6ED03C
:10104000D36818218B43A1680B43D36022681369CE
:101050009B009B0861680B4313612268D368474972
:101060000B40D360237E9B03627ED2031343A17E99
:101070004A031343A26A012A58D080225201134323
:10108000E26813432269022A52D02B432422A25C35
:1010900052001343E27E012A4CD0E269C221FF31A3
:1010A0008A4202D0216A0A4313432168CA681A435C
:1010B000CA60E26A802149058A420DD0012A0BD01C
:1010C000022A09D0032A07D0042A05D0052A03D012
:1010D000062A01D0072A0AD12068416907229143D4
:1010E000416120684169E56A2A400A4342612268F9
:1010F000D26823490A409A422BD0A36B1222934311
:10110000023A1343A363E36B0F3A1343E3630120F3
:101110002EE0C36334228354FFF770FC78E7136832
:10112000DB079AD4D3681B0497D489E72A00A6E783
:101130000425AAE7002903D1802252021343ACE719
:10114000A26B20210A43A263E26B1F390A43E263C8
:10115000A3E70023E363A36B03229343023A134301
:10116000A363002004E0A36B10221343A3630120B8
:1011700070BD0120FCE7C046FDFEFFFF1902FEFF27
:10118000E7FF3F8330B583B004000023019334337D
:10119000C35C012B00D181E034230122C2540368D7
:1011A0009A68520770D43E4A4868904253D09A6A6F
:1011B00001200D68A84002439A62E36A802252052A
:1011C00093421ED0012B1CD0022B1AD0032B18D017
:1011D000042B16D0052B14D0062B12D0072B10D0C1
:1011E00022685069072303408868984209D05069F3
:1011F000072398435061206842698D682B40134350
:1012000043610B681A00103A012A01D9002040E01E
:10121000244A1268102B09D08023DB031343214A90
:1012200013600B68102B04D0002032E080231B04D5
:10123000F4E71D4B18681D49FEF742FF83001B1899
:101240005B00019302E0019B013B0193019B002B9A
:10125000F9D100201DE09A6A01200D68A840824360
:101260009A620B681A00103A012A01D9002010E096
:101270000C4A1268102B05D00D4B1340094A13601D
:10128000002006E00B4BF8E7836B202213438363B7
:10129000012034230022E25403B030BD0220FBE7DA
:1012A00001100000082701400800002040420F0004
:1012B000FFFFBFFFFFFF7FFF70B582B0041E00D1AC
:1012C0002EE20368DB0726D5AE4B5A680C23134089
:1012D000042B18D0AB4B5A680C231340082B0ED0AC
:1012E0006368012B3CD0002B51D1A64B1A68A6494C
:1012F0000A401A601A68A5490A401A6036E0A14BF4
:101300005B68DB03ECD59F4B1B689B0303D56368CD
:10131000002B00D107E223689B0772D5994B5B68CD
:101320000C221A425DD0974B5A680C231340082BAD
:1013300053D0E368002B00D185E0924A1368012165
:101340000B43136000F0C0FB05008E4B1B689B072E
:1013500070D400F0B9FB401B0228F6D90320E0E16D
:10136000884A116880235B020B4313606368002B7B
:1013700025D000F0A9FB0500824B1B689B03CAD453
:1013800000F0A2FB401B6428F6D90320C9E1052B1D
:1013900009D07C4B1A687C490A401A601A687B495C
:1013A0000A401A60E2E7774B19688022D2020A43AA
:1013B0001A601968802252020A431A60D6E700F0C8
:1013C00083FB05006F4B1B689B03A4D500F07CFBDF
:1013D000401B6428F6D90320A3E16A4B5B68DB035A
:1013E000A7D4684B1B689B0703D5E368012B00D08B
:1013F0009BE164490B68F82293432269D2001343AE
:101400000B6023681B0744D5E369002B2ED05D4A8F
:10141000536A01210B43536200F056FB0500594B00
:101420005B6A9B0735D400F04FFB401B0228F6D9BE
:10143000032076E153490B68F82293432269D200D6
:1014400013430B60DDE74F4A136801218B431360A0
:1014500000F03AFB05004B4B1B689B07D1D500F011
:1014600033FB401B0228F6D903205AE1454A536A50
:1014700001218B43536200F027FB0500414B5B6A5F
:101480009B0706D500F020FB401B0228F6D903205D
:1014900047E123685B0700D480E03A4BDB69DB005F
:1014A0001DD4384AD169802040050143D161D369F8
:1014B00003400193019B0125354B1B68DB0510D5CB
:1014C000A368012B21D0002B36D12E4B1A6A0121A3
:1014D0008A431A621A6A03318A431A621AE00025A3
:1014E000EAE72B4A116880235B000B43136000F08E
:1014F000EBFA0600264B1B68DB05E1D400F0E4FAAA
:10150000801B6428F6D903200BE11E4A136A0121CF
:101510000B431362A368002B24D000F0D5FA060019
:10152000184B1B6A9B0737D400F0CEFA801B194B6F
:101530009842F5D90320F4E0052B09D0114B1A6A23
:1015400001218A431A621A6A03318A431A62E1E767
:101550000C4B1A6A04210A431A621A6A03390A43B5
:101560001A62D7E700F0B0FA0600064B1B6A9B0729
:1015700012D500F0A9FA801B064B9842F5D903203A
:10158000CFE0C04600100240FFFFFEFFFFFFFBFF61
:101590000070004088130000012D33D02368DB0663
:1015A00010D56369012B33D0053351D1654A536B94
:1015B00004218B435363536BF4318B43A169C900FE
:1015C0000B435363236A002B00D1B0E05D4A51689E
:1015D0000C220A40082A00D18AE0022B4FD0594A37
:1015E000136859490B40136000F06EFA0400554B24
:1015F0001B689B017AD500F067FA001B0228F6D918
:1016000003208EE04F4AD36950490B40D361C5E7B0
:101610004C4B5A6B04210A435A635A6B03390A43F1
:101620005A6300F051FA0500464B5B6B9B0706D4EA
:1016300000F04AFA401B0228F6D9032071E0414924
:101640004B6BF8229343A269D20013434B63B9E773
:101650003C4B5A6B04210A435A635A6B03398A4341
:101660005A6300F031FA0500364B5B6B9B07A9D536
:1016700000F02AFA401B0228F6D9032051E0314A33
:10168000136831490B40136000F01EFA05002D4B22
:101690001B689B0106D500F017FA401B0228F6D9FB
:1016A00003203EE0274BDA6A0F218A43E16A0A43AE
:1016B000DA625A6826490A40A16A606A01430A430D
:1016C0005A601968802252040A431A6000F0FCF93B
:1016D00004001C4B1B689B0106D400F0F5F9001BAD
:1016E0000228F6D903201CE000201AE0002018E0B0
:1016F000012B1ED0134B5A68D96A80235B0213401A
:10170000606A834217D10F230B40E16A8B4214D1E8
:10171000F0239B031A40A36A9A4210D1002000E0F4
:10172000012002B070BD0120FBE70120F9E7002095
:10173000F7E70120F5E70120F3E70120F1E70120B9
:10174000EFE7C04600100240FFFFFFFEFFFFFFEF84
:10175000FFFFC2FF10B588B004AA164B13CB13C20B
:101760001B6813606A46144B13CB13C21B681360CB
:10177000124B5A680C231340082B02D0104808B0B3
:1017800010BD910C0733194004A8445C0B49C96A89
:101790000B406946C95CD30304D50948FEF790FCA9
:1017A0006043ECE763011B1B9801C01AC0000019DD
:1017B0000002E4E7AC2D0008C02D00080010024034
:1017C00000127A0070B504000D00002800D17EE000
:1017D000434B1A68012313408B420AD240490B68DD
:1017E000012293432B430B600B681A40AA4200D09E
:1017F0006FE023689A070ED55B0705D5394A516813
:10180000E023DB000B435360364A5368F0218B43DF
:10181000A1680B4353602368DB072DD56368012B58
:101820001ED0022B22D02F4A1268920753D52D4981
:101830004A680320824313434B6000F045F90600D9
:10184000284B5B680C221A4063689B009A4213D0B5
:1018500000F03AF9801B244B9842F1D9032035E07F
:10186000204A12689203E2D401202FE01D4A126838
:101870009201DCD4012029E0194B1A68012313409E
:10188000AB4209D916490B68012293432B430B60E5
:101890000B681A40AA4220D123685B0706D5114A7B
:1018A000536812490B40E1680B435360FFF752FF46
:1018B0000C4B5A6812090F2313400D4AD35CD840D1
:1018C0000C4B1860012000F0BBF8002070BD012017
:1018D000FCE70120FAE70120F8E70120F6E7C0461F
:1018E000002002400010024088130000FFF8FFFFB4
:1018F000D42D000808000020014B18687047C0462E
:101900000800002010B5FFF7F7FF044B5A68120AD1
:1019100007231340024AD35CD84010BD0010024098
:10192000E42D000870B582B004000368DB0337D5EE
:101930003D4BDB69DB0049D43B4AD169802040053F
:101940000143D161D36903400193019B0125374BCA
:101950001B68DB053CD5344B1A6AC0239B00110081
:1019600019401A4213D0626813408B420FD02E4B9D
:10197000186A2F4A02401E6A8021490231431962C7
:10198000196A2C4E314019621A62C30734D4264AB0
:10199000136A27490B4061680B431362012D3AD04B
:1019A0002368DB0706D5204A136B03218B43A1680C
:1019B0000B43136323689B0632D51B4A136B10211C
:1019C0008B43E1680B43136300202AE00025BEE748
:1019D000164A116880235B000B43136000F074F813
:1019E0000600124B1B68DB05B5D400F06DF8801BB8
:1019F0006428F6D9032014E000F066F806000A4BCC
:101A00001B6A9B07C3D400F05FF8801B0A4B984207
:101A1000F5D9032005E0D36908490B40D361BFE73E
:101A2000002002B070BDC0460010024000700040AF
:101A3000FFFCFFFFFFFFFEFF88130000FFFFFFEF2B
:101A400010B504000F4B1978FA208000FEF738FB20
:101A500001000D4B1868FEF733FB00F0FFF900287A
:101A60000DD1032C01D901200AE001300022210010
:101A7000404200F0B7F9054B1C60002000E0012057
:101A800010BDC04600000020080000200400002017
:101A900010B5064A136810210B4313600120FFF7AD
:101AA000CFFFFEF793FF002010BDC046002002408C
:101AB000034A1168034B1B785B1813607047C046DC
:101AC000FC03002000000020014B18687047C0464E
:101AD000FC03002010B5041E59D04123C35C002B29
:101AE00043D041232422E2542268136801218B430E
:101AF00013602268274B61680B401361226893686A
:101B000025490B409360E368012B34D0226884237D
:101B10001B02A1680B439360E368022B32D022685A
:101B200051681E4B0B4353602268D3681A490B401F
:101B3000D360236962691343A269120221681343C7
:101B4000CB602268E369216A0B4313602268136843
:101B500001210B4313600023636441221F31A15410
:101B600023630132A354002010BD40330022C2542D
:101B7000FEF786FFB5E7226880231B02A1680B43AE
:101B80009360C9E72368802212015A60C7E70120E9
:101B9000EAE7C046FFFFFFF0FF7FFFFF0080000283
:101BA000F0B54123C35C202B20D12033C35C012B33
:101BB0001ED04024012202554125242343550668A6
:101BC000336893433360066833680A4F3B403360A1
:101BD000066833681943316001680B6813430B6072
:101BE00020234355002303550020F0BD0220FCE7CD
:101BF0000220FAE7FFEFFFFFF0B54123C35C202B83
:101C00001ED12033C35C012B1CD04024012202557D
:101C1000412524234355066833689343336006689F
:101C20003368094F3B4009021943316001680B6872
:101C300013430B6020234355002303550020F0BDC0
:101C40000220FCE70220FAE7FFF0FFFFF0B583B0C7
:101C5000002357E084685F000326BE40B44326009B
:101C6000CC68BC4034438460446894434A68160995
:101C7000012232409A402243426053E0DC0808349B
:101C8000A400265805321A4092000F279740BE4301
:101C90000F6997403A003243225057E0032600E094
:101CA0000026A64034003C4302329200444E945138
:101CB000444A1468EA432600AE434F68FF0301D547
:101CC0002C4326003F4C26606468260016404F686F
:101CD000BF0301D52C4326003A4C6660A468260059
:101CE00016404F68FF0201D52C432600354CA660F4
:101CF000E46822404E68B60201D52A002243314CE6
:101D0000E26001330C682200DA4057D001229A4089
:101D1000250015401442F4D003244E683440013CA1
:101D2000012C97D903224C682240032A09D0C268AB
:101D30005E000324B440A24314008A68B2402243E8
:101D4000C26003224C682240022A97D004685E00D9
:101D500003221700B740BC434F683A40B2402243C9
:101D60000260C02292024C681442CAD0164CA66986
:101D700001221643A661A46922400192019A9A08A1
:101D8000941CA4000E4EA75903241C40A4000F2647
:101D9000A640B7439026F605B04281D00B4EB04224
:101DA00008D00B4EB04207D00A4EB04200D175E7C2
:101DB000052676E7012674E7022672E703B0F0BD38
:101DC00000000140000401400010024000040048EF
:101DD00000080048000C0048002A01D081617047CB
:101DE0008162FCE770B5002811DB8308134EC03315
:101DF0009B009D5903242040C000FF221400844012
:101E0000A54389010A4082402A439A5170BD0F239D
:101E10000340083B9B0806339B00094A94466344F1
:101E20005C6803221040C000FC3215008540AC43C2
:101E300089010A40824022435A60E7E700E100E05E
:101E400000ED00E0002805DB1F2318401E3B834007
:101E5000014A13607047C04600E100E0013880236A
:101E60005B0498420FD2094A50600948036A1B027A
:101E70001B0AC02109060B4303620023936007334A
:101E80001360002070470120FCE7C04610E000E02E
:101E900000ED00E070B5041E00D178E0436A002B2D
:101EA00007D10533FF3342689A4205D00023C3614E
:101EB00002E00023036143610023A3625D33E35C1E
:101EC000002B5AD05D230222E2542268136840217D
:101ED0008B431360E368E022D200934254D900227E
:101EE000F02109018B4205D0E021C9008B4201D0CD
:101EF0000023A36282235B0061680B4084210902F6
:101F0000A06801400B430221206901400B430121DD
:101F100060690840034380208000A569284003438E
:101F20003820E569284003438020256A2840034380
:101F300080208001A56A2840034320680360608BED
:101F4000042303401020656A284003430820656B82
:101F500028400343F0200001E5682840034320683F
:101F6000134343602268D3690A480340D3610023C6
:101F700023665D33E154002070BD5C330022E254DF
:101F80002000FEF7D7FD9DE780225201A8E701203F
:101F9000F2E7C046FFF7FFFF30B5036A0122934323
:101FA0000362036A426884697325AC430D682C435D
:101FB0000225AB438D682B43144DA84208D0144D25
:101FC000A84205D0134DA84202D0134DA84205D116
:101FD0000825AB43CD682B430425AB430B4DA842EA
:101FE00008D00B4DA84205D00A4DA84202D00A4D98
:101FF000A84205D1094D2A404D692A438D692A43DB
:10200000426084614A684263036230BD002C014033
:10201000004001400044014000480140FFFCFFFF38
:1020200070B5036A194A13400362036A4268C469BF
:102030007325AC430E682643154C23408C6824025C
:102040002343144CA04219D0124CA04208D0124C89
:10205000A04205D0114CA04202D0114CA04207D1A1
:10206000104C14404A69120122438C6925012A430D
:102070004260C6614A68C263036270BD0A4C1C407C
:10208000CB681B022343094C2340DDE7FFFEFFFF23
:10209000FFFDFFFF002C01400040014000440140D3
:1020A00000480140FFCFFFFFFFF7FFFFFFFBFFFFEF
:1020B00030B5036A134A13400362026A4368C46975
:1020C000114D2C400D682D022C43104D15408A688F
:1020D00012032A430E4DA84208D00E4DA84205D047
:1020E0000D4DA84202D00D4DA84204D10C4D2B40FD
:1020F0004D69AD012B434360C4614B6803640262C8
:1021000030BDC046FFEFFFFFFF8CFFFFFFDFFFFF8B
:10211000002C0140004001400044014000480140C3
:10212000FFBFFFFF30B5036A046A0125AC430462B8
:102130008469EF35AC43120122430A24A3430B43C5
:102140008261036230BD000030B5036A1024A343EE
:1021500003628469036A054D2C4012032243A024C4
:10216000A343090119438261016230BDFF0FFFFFE4
:102170008368702293430B4307210B4383607047AE
:102180003D23C35C012B22D13C330222C25402689E
:10219000D36801210B43D36003680F4A93420BD0ED
:1021A0000E4A934208D00E4A934205D01A68012184
:1021B0000A431A6000200BE0996807220A40062AA9
:1021C00007D01A6801210A431A60002000E00120AC
:1021D00070470020FCE7C046002C0140000400408E
:1021E000004001407047704770477047704710B516
:1021F000040003681A6992070FD5DA6892070CD5B4
:10220000032252421A610123037703689B699B07EB
:1022100063D0FFF7E9FF0023237723681A69520789
:1022200012D5DA6852070FD5052252421A610223ED
:10223000237723689A69C0239B001A4253D0200059
:10224000FFF7D2FF0023237723681A69120710D5FE
:10225000DA6812070DD5092252421A610423237746
:102260002368DB699B0745D02000FFF7BDFF0023F3
:10227000237723681A69D20612D5DA68D2060FD5F9
:10228000112252421A61082323772368DA69C02396
:102290009B001A4235D02000FFF7A6FF00232377CA
:1022A00023681A69D20702D5DA68D20730D42368C6
:1022B0001A69120602D5DA68120630D423681A6940
:1022C000520602D5DA68520630D423681A6992069B
:1022D00002D5DA68920630D410BDFFF784FF2000E3
:1022E000FFF783FF97E72000FFF77DFF2000FFF750
:1022F0007CFFA7E72000FFF776FF2000FFF775FFC0
:10230000B5E72000FFF76FFF2000FFF76EFFC5E77E
:10231000022252421A612000FEF75CFEC7E78122CA
:1023200052421A61200000F066FAC7E74122524289
:102330001A612000FFF75AFFC7E7212252421A61B3
:10234000200000F057FAC7E703681D4A904202D008
:102350001C4A904203D1702293434A681343184A9F
:1023600090420ED0174A90420BD0174A904208D0A4
:10237000164A904205D0164A904202D0154A904221
:1023800003D1154A1340CA681343802293434A6914
:10239000134303608B68C3620B688362084B9842E7
:1023A00008D00A4B984205D0094B984202D0094BFD
:1023B000984201D10B690363012343617047C04612
:1023C000002C01400004004000200040004001407B
:1023D0000044014000480140FFFCFFFF70B5041EAF
:1023E00026D03D23C35C002B1CD03D250223635522
:1023F000210001C9FFF7A8FF01234622A354083A90
:10240000A3540132A3540132A3540132A354013224
:10241000A3540132A3540132A3540132A35463558F
:10242000002070BD3C330022C254FEF7B5FBDCE750
:102430000120F6E770B5041E26D03D23C35C002BB7
:102440001CD03D2502236355210001C9FFF77CFF05
:1024500001234622A354083AA3540132A354013263
:10246000A3540132A3540132A3540132A3540132C4
:10247000A3540132A3546355002070BD3C330022A5
:10248000C254FFF7AFFEDCE70120F6E770B5036A40
:10249000102293430362036A42688469174D2C40FB
:1024A0000D682D0225432024A3438C682401234377
:1024B000134CA04219D0124CA04208D0114CA0429B
:1024C00005D0114CA04202D0104CA04207D1104CB4
:1024D00014404A69920022438C69A600324342604C
:1024E00085614A688263036270BD8024A3431C0037
:1024F000CB681B0123434024A343DCE7FF8CFFFF91
:10250000002C0140004001400044014000480140CF
:10251000FFF3FFFF70B504000D003C23C35C012BEB
:1025200000D16AE03C230121C154082A50D01CD8B4
:10253000002A38D0042A16D129000068FFF7A6FF28
:102540002268916980231B010B4393612268936980
:102550002B490B40936121688B692A69120213434E
:102560008B6100201BE0080019E00C2A16D129001D
:102570000068FFF79DFD2268D16980231B010B4392
:10258000D3612268D3691E490B40D3612168CB69AE
:102590002A6912021343CB61002000E001203C2392
:1025A0000022E25470BD29000068FFF7F5FC2268A4
:1025B000936908210B4393612268936904398B4323
:1025C00093612268936929690B4393610020E6E7D0
:1025D00029000068FFF724FD2268D36908210B4316
:1025E000D3612268D36904398B43D3612268D369EC
:1025F00029690B43D3610020D1E70220D2E7C0460E
:10260000FFFBFFFF30B58468034D2C401B021343D2
:102610000B432343836030BDFF00FFFF10B5040070
:102620003C23C35C012B00D178E03C230122C2543F
:1026300001330132C2540268936839480340936001
:102640000B68602B50D02AD8402B58D00CD9502B77
:1026500023D1CA6849682068FFF764FD50212068CB
:10266000FFF786FD002005E0202B0ED009D9302B86
:102670000BD001203D230122E254013B0022E25411
:1026800010BD002B01D0102B05D119002068FFF7D9
:102690006FFD0020EEE70120ECE70120EAE7802251
:1026A0005201934236D08022920193420DD1CB68E1
:1026B0004A6889682068FFF7A5FF2268916880232F
:1026C000DB010B4393600020D4E7702B24D1CB684F
:1026D0004A6889682068FFF795FF22689368772128
:1026E0000B4393600020C5E7CA6849682068FFF77C
:1026F0002BFD60212068FFF73BFD0020BAE7CA6888
:1027000049682068FFF70EFD40212068FFF730FD83
:102710000020AFE70020ADE70120ABE70220AFE7E4
:102720008800FFFF30B53C23C35C012B24D03C2341
:102730000122C25401330132C25403685A689C68B2
:102740007025AA430D682A435A6003680B4A9342D6
:1027500005D00B4A934202D00A4A934204D1802208
:1027600094434A6814439C603D230122C254013BB8
:102770000022C254002030BD0220FCE7002C0140A2
:10278000000400400040014010B53C23C35C012B15
:1027900021D03C2201238354104BCC6823408C6809
:1027A00023430F4C23404C6823430E4C23400C68BA
:1027B00023430D4C23400C6923430C4C23404C69AC
:1027C00023430B4C2340C9690B4301684B6400232E
:1027D0008354002010BD0220FCE7C046FFFCFFFF31
:1027E000FFFBFFFFFFF7FFFFFFEFFFFFFFDFFFFF35
:1027F000FFBFFFFF7047704710B504008368026990
:10280000134342691343C269134301680A6851487C
:10281000024013430B60226853684F490B40E16844
:102820000B435360226AA3691A4321688B684B48A3
:10283000034013438B602368494A934223D0494A9B
:10284000934231D01023E06980221202904235D0A9
:10285000042B00D176E064D8002B00D16BE0022B72
:102860005DD1414863685B0818186168FDF728FC72
:102870000004000C0200103A3C4B9A4267D82368CF
:10288000D860002053E03A4B1A6B03231340022B0D
:102890000CD005D8002B0BD0012B0BD10333D2E782
:1028A000032B09D1013BCEE70023CCE70823CAE77D
:1028B0000023C8E71023C6E71023C4E7042B2BD05E
:1028C00020D8002B22D0022B1AD127484000636861
:1028D0005B08C0186168FDF7F3FB83B20004000CCD
:1028E00001001039214A91422FD80F2293431A0038
:1028F00040080723184010432368D860002016E0E2
:10290000012014E0082BE1D0012010E0FEF7FAFFCF
:102910000028DBD100200AE0FEF71CFFF8E70120C9
:1029200005E0082B02D1802000029BE70120002354
:102930006366A36610BDFEF7E5FF002800D091E7AF
:102940000020F4E7FEF706FFF7E70120EFE701209C
:10295000EDE7C046F369FFFFFFCFFFFFFFF4FFFF86
:10296000003801400044004000127A00EFFF0000F0
:1029700000100240436ADB0706D5026853682C4901
:102980000B40816A0B435360436A9B0706D502687C
:10299000536828490B40C16A0B435360436A5B0785
:1029A00006D50268536824490B40016B0B43536002
:1029B000436A1B0706D50268536820490B40416BE8
:1029C0000B435360436ADB0606D5026893681C49D3
:1029D0000B40816B0B439360436A9B0606D50268EC
:1029E000936818490B40C16B0B439360436A5B06C5
:1029F0000BD50268536814490B40016C0B435360BC
:102A000080235B03026C9A420AD0436A1B0606D5F8
:102A1000026853680D490B40816C0B43536070474B
:102A2000026853680A490B40416C0B435360ECE762
:102A3000FFFFFDFFFFFFFEFFFFFFFBFFFF7FFFFF2D
:102A4000FFEFFFFFFFDFFFFFFFFFEFFFFFFFF7FFDE
:102A5000FFFF9FFFF8B5CE46474680B506000D0044
:102A600017009946089B98463368DC692C40641B24
:102A700063425C41BC4253D143460133F4D0FFF77B
:102A800023F84B46C01A40452CD84346002B29D08A
:102A900033681A685207E7D5DA691205E4D580224F
:102AA00012011A62EFF31080012282F3108831685C
:102AB0000B681E4C23400B6080F31088EFF31080EE
:102AC00082F3108831688B6893438B6080F31088A1
:102AD0002023B367F3677F32B35054330022F2549C
:102AE00003201EE0EFF31080012282F3108831688A
:102AF0000B680E4C23400B6080F31088EFF31080BE
:102B000082F3108831688B6893438B6080F3108860
:102B10002023B367F36754330022F254032000E00C
:102B20000020C0BCB946B046F8BDC0465FFEFFFFFE
:102B300030B583B0040080230022C250FEF7C4FFEA
:102B400005002268126813070DD423681B685B0711
:102B500016D42023A367E367002323667422A354BB
:102B6000002003B030BD80210C4B009303000022F5
:102B700089032000FFF76EFF0028E6D00320F0E76E
:102B80008021064B00932B000022C9032000FFF791
:102B900061FF0028DDD00320E3E7C046FFFFFF010F
:102BA00010B5041E2ED0836F002B21D02423A367E1
:102BB0002268136801218B4313602000FFF71CFE7D
:102BC000012814D0636A002B18D1226853680E497B
:102BD0000B4053602268936808218B4393602268FE
:102BE000136807390B4313602000FFF7A1FF10BDE6
:102BF00074330022C254FEF7D9F8D7E72000FFF75C
:102C0000B9FEE2E70120F2E7FFF7FFFF704700009F
:102C100010B50B4B0B4A01E002CA02C30A498B42B2
:102C2000FAD30A4B01E0002204C3094A9342FAD3C3
:102C3000FFF7ECFF00F082F8FDF79EFEFEE7C046CE
:102C400000000020F42D00080C0000200C000020E3
:102C500000040020FEE710B5FFF7FCFF10B5FFF7FA
:102C6000F9FF10B5FFF7F6FF10B5FFF7F3FF10B54A
:102C7000FFF7F0FF10B5FFF7EDFF10B5FFF7EAFF24
:102C800010B5FFF7E7FF10B5FFF7E4FF10B5FFF74A
:102C9000E1FF10B5FFF7DEFF10B5FFF7DBFF10B562
:102CA000FFF7D8FF10B5FFF7D5FF10B5FFF7D2FF3C
:102CB00010B5FFF7CFFF10B5FFF7CCFF10B5FFF74A
:102CC000C9FF10B5FFF7C6FF10B5FFF7C3FF10B57A
:102CD000FFF7C0FF10B5FFF7BDFF10B5FFF7BAFF54
:102CE00010B5FFF7B7FF10B5FFF7B4FF10B5FFF74A
:102CF000B1FF10B5FFF7AEFF10B50248FFF777FA46
:102D000010BDC046F401002010B5FFF7F5FF10BD5F
:102D100010B50248FFF76BFA10BDC04684020020D0
:102D200010B5FFF7F5FF10BD10B5FEF7C1FEFEF7B9
:102D30000FF910BD10B5FFF7F7FF10BD70B50026F5
:102D40000C4D0D4C641BA410A64209D1002600F0C6
:102D500021F80A4D0A4C641BA410A64205D170BD8F
:102D6000B300EB5898470136EEE7B300EB589847AD
:102D70000136F2E7EC2D0008EC2D0008EC2D0008E0
:102D8000F02D000803008218934200D1704719709B
:102D90000133F9E7F8B5C046F8BC08BC9E46704759
:0C2DA000F8B5C046F8BC08BC9E46704761
:102DAC0002030405060708090A0B0C0D0E0F101080
:102DBC00000000000102030405060708090A0B0CB9
:102DCC000D0E0F10000000000000000000000000BD
:102DDC0001020304060708090000000001020304B5
:042DEC0001020008D8
:042DF000D9010008FD
:0C2DF400010000000400000000127A0042
:0400000508002C11B2
:00000001FF
